{
	"MyContract.sol": {
		"LotteryContract": {
			"abi": [
				{
					"inputs": [],
					"stateMutability": "nonpayable",
					"type": "constructor"
				},
				{
					"inputs": [],
					"name": "getBalance",
					"outputs": [
						{
							"internalType": "uint256",
							"name": "",
							"type": "uint256"
						}
					],
					"stateMutability": "view",
					"type": "function"
				},
				{
					"inputs": [],
					"name": "manager",
					"outputs": [
						{
							"internalType": "address",
							"name": "",
							"type": "address"
						}
					],
					"stateMutability": "view",
					"type": "function"
				},
				{
					"inputs": [],
					"name": "pickWinner",
					"outputs": [],
					"stateMutability": "nonpayable",
					"type": "function"
				},
				{
					"inputs": [
						{
							"internalType": "uint256",
							"name": "",
							"type": "uint256"
						}
					],
					"name": "players",
					"outputs": [
						{
							"internalType": "address payable",
							"name": "",
							"type": "address"
						}
					],
					"stateMutability": "view",
					"type": "function"
				},
				{
					"inputs": [],
					"name": "randomNumber",
					"outputs": [
						{
							"internalType": "uint256",
							"name": "",
							"type": "uint256"
						}
					],
					"stateMutability": "view",
					"type": "function"
				},
				{
					"inputs": [],
					"name": "winner",
					"outputs": [
						{
							"internalType": "address payable",
							"name": "",
							"type": "address"
						}
					],
					"stateMutability": "view",
					"type": "function"
				},
				{
					"stateMutability": "payable",
					"type": "receive"
				}
			],
			"devdoc": {
				"kind": "dev",
				"methods": {},
				"version": 1
			},
			"evm": {
				"assembly": "    /* \"MyContract.sol\":70:1518  contract LotteryContract {... */\n  mstore(0x40, 0x80)\n    /* \"MyContract.sol\":302:429  constructor() {... */\n  callvalue\n  dup1\n  iszero\n  tag_1\n  jumpi\n  0x00\n  dup1\n  revert\ntag_1:\n  pop\n    /* \"MyContract.sol\":412:422  msg.sender */\n  caller\n    /* \"MyContract.sol\":402:409  manager */\n  0x00\n  dup1\n    /* \"MyContract.sol\":402:422  manager = msg.sender */\n  0x0100\n  exp\n  dup2\n  sload\n  dup2\n  0xffffffffffffffffffffffffffffffffffffffff\n  mul\n  not\n  and\n  swap1\n  dup4\n  0xffffffffffffffffffffffffffffffffffffffff\n  and\n  mul\n  or\n  swap1\n  sstore\n  pop\n    /* \"MyContract.sol\":70:1518  contract LotteryContract {... */\n  dataSize(sub_0)\n  dup1\n  dataOffset(sub_0)\n  0x00\n  codecopy\n  0x00\n  return\nstop\n\nsub_0: assembly {\n        /* \"MyContract.sol\":70:1518  contract LotteryContract {... */\n      mstore(0x40, 0x80)\n      jumpi(tag_1, lt(calldatasize, 0x04))\n      shr(0xe0, calldataload(0x00))\n      dup1\n      0x12065fe0\n      eq\n      tag_3\n      jumpi\n      dup1\n      0x481c6a75\n      eq\n      tag_4\n      jumpi\n      dup1\n      0x5d495aea\n      eq\n      tag_5\n      jumpi\n      dup1\n      0xccbac9f5\n      eq\n      tag_6\n      jumpi\n      dup1\n      0xdfbf53ae\n      eq\n      tag_7\n      jumpi\n      dup1\n      0xf71d96cb\n      eq\n      tag_8\n      jumpi\n      jump(tag_2)\n    tag_1:\n      jumpi(tag_2, calldatasize)\n        /* \"MyContract.sol\":494:508  0.000001 ether */\n      0xe8d4a51000\n        /* \"MyContract.sol\":481:490  msg.value */\n      callvalue\n        /* \"MyContract.sol\":481:508  msg.value == 0.000001 ether */\n      eq\n        /* \"MyContract.sol\":473:509  require(msg.value == 0.000001 ether) */\n      tag_11\n      jumpi\n      0x00\n      dup1\n      revert\n    tag_11:\n        /* \"MyContract.sol\":593:600  players */\n      0x01\n        /* \"MyContract.sol\":614:624  msg.sender */\n      caller\n        /* \"MyContract.sol\":593:626  players.push(payable(msg.sender)) */\n      swap1\n      dup1\n      0x01\n      dup2\n      sload\n      add\n      dup1\n      dup3\n      sstore\n      dup1\n      swap2\n      pop\n      pop\n      0x01\n      swap1\n      sub\n      swap1\n      0x00\n      mstore\n      keccak256(0x00, 0x20)\n      add\n      0x00\n      swap1\n      swap2\n      swap1\n      swap2\n      swap1\n      swap2\n      0x0100\n      exp\n      dup2\n      sload\n      dup2\n      0xffffffffffffffffffffffffffffffffffffffff\n      mul\n      not\n      and\n      swap1\n      dup4\n      0xffffffffffffffffffffffffffffffffffffffff\n      and\n      mul\n      or\n      swap1\n      sstore\n      stop\n        /* \"MyContract.sol\":70:1518  contract LotteryContract {... */\n    tag_2:\n      0x00\n      dup1\n      revert\n        /* \"MyContract.sol\":639:778  function getBalance () public view returns(uint )... */\n    tag_3:\n      callvalue\n      dup1\n      iszero\n      tag_13\n      jumpi\n      0x00\n      dup1\n      revert\n    tag_13:\n      pop\n      tag_14\n      tag_15\n      jump\t// in\n    tag_14:\n      mload(0x40)\n      tag_16\n      swap2\n      swap1\n      tag_17\n      jump\t// in\n    tag_16:\n      mload(0x40)\n      dup1\n      swap2\n      sub\n      swap1\n      return\n        /* \"MyContract.sol\":101:123  address public manager */\n    tag_4:\n      callvalue\n      dup1\n      iszero\n      tag_18\n      jumpi\n      0x00\n      dup1\n      revert\n    tag_18:\n      pop\n      tag_19\n      tag_20\n      jump\t// in\n    tag_19:\n      mload(0x40)\n      tag_21\n      swap2\n      swap1\n      tag_22\n      jump\t// in\n    tag_21:\n      mload(0x40)\n      dup1\n      swap2\n      sub\n      swap1\n      return\n        /* \"MyContract.sol\":1204:1515  function pickWinner() public... */\n    tag_5:\n      callvalue\n      dup1\n      iszero\n      tag_23\n      jumpi\n      0x00\n      dup1\n      revert\n    tag_23:\n      pop\n      tag_24\n      tag_25\n      jump\t// in\n    tag_24:\n      stop\n        /* \"MyContract.sol\":951:1198  function randomNumber() public view returns (uint) {... */\n    tag_6:\n      callvalue\n      dup1\n      iszero\n      tag_26\n      jumpi\n      0x00\n      dup1\n      revert\n    tag_26:\n      pop\n      tag_27\n      tag_28\n      jump\t// in\n    tag_27:\n      mload(0x40)\n      tag_29\n      swap2\n      swap1\n      tag_17\n      jump\t// in\n    tag_29:\n      mload(0x40)\n      dup1\n      swap2\n      sub\n      swap1\n      return\n        /* \"MyContract.sol\":248:277  address payable public winner */\n    tag_7:\n      callvalue\n      dup1\n      iszero\n      tag_30\n      jumpi\n      0x00\n      dup1\n      revert\n    tag_30:\n      pop\n      tag_31\n      tag_32\n      jump\t// in\n    tag_31:\n      mload(0x40)\n      tag_33\n      swap2\n      swap1\n      tag_34\n      jump\t// in\n    tag_33:\n      mload(0x40)\n      dup1\n      swap2\n      sub\n      swap1\n      return\n        /* \"MyContract.sol\":176:208  address payable[] public players */\n    tag_8:\n      callvalue\n      dup1\n      iszero\n      tag_35\n      jumpi\n      0x00\n      dup1\n      revert\n    tag_35:\n      pop\n      tag_36\n      0x04\n      dup1\n      calldatasize\n      sub\n      dup2\n      add\n      swap1\n      tag_37\n      swap2\n      swap1\n      tag_38\n      jump\t// in\n    tag_37:\n      tag_39\n      jump\t// in\n    tag_36:\n      mload(0x40)\n      tag_40\n      swap2\n      swap1\n      tag_34\n      jump\t// in\n    tag_40:\n      mload(0x40)\n      dup1\n      swap2\n      sub\n      swap1\n      return\n        /* \"MyContract.sol\":639:778  function getBalance () public view returns(uint )... */\n    tag_15:\n        /* \"MyContract.sol\":682:686  uint */\n      0x00\n        /* \"MyContract.sol\":725:732  manager */\n      dup1\n      0x00\n      swap1\n      sload\n      swap1\n      0x0100\n      exp\n      swap1\n      div\n      0xffffffffffffffffffffffffffffffffffffffff\n      and\n        /* \"MyContract.sol\":711:732  msg.sender == manager */\n      0xffffffffffffffffffffffffffffffffffffffff\n      and\n        /* \"MyContract.sol\":711:721  msg.sender */\n      caller\n        /* \"MyContract.sol\":711:732  msg.sender == manager */\n      0xffffffffffffffffffffffffffffffffffffffff\n      and\n      eq\n        /* \"MyContract.sol\":703:733  require(msg.sender == manager) */\n      tag_42\n      jumpi\n      0x00\n      dup1\n      revert\n    tag_42:\n        /* \"MyContract.sol\":750:771  address(this).balance */\n      selfbalance\n        /* \"MyContract.sol\":743:771  return address(this).balance */\n      swap1\n      pop\n        /* \"MyContract.sol\":639:778  function getBalance () public view returns(uint )... */\n      swap1\n      jump\t// out\n        /* \"MyContract.sol\":101:123  address public manager */\n    tag_20:\n      0x00\n      dup1\n      sload\n      swap1\n      0x0100\n      exp\n      swap1\n      div\n      0xffffffffffffffffffffffffffffffffffffffff\n      and\n      dup2\n      jump\t// out\n        /* \"MyContract.sol\":1204:1515  function pickWinner() public... */\n    tag_25:\n        /* \"MyContract.sol\":1269:1276  manager */\n      0x00\n      dup1\n      sload\n      swap1\n      0x0100\n      exp\n      swap1\n      div\n      0xffffffffffffffffffffffffffffffffffffffff\n      and\n        /* \"MyContract.sol\":1255:1276  msg.sender == manager */\n      0xffffffffffffffffffffffffffffffffffffffff\n      and\n        /* \"MyContract.sol\":1255:1265  msg.sender */\n      caller\n        /* \"MyContract.sol\":1255:1276  msg.sender == manager */\n      0xffffffffffffffffffffffffffffffffffffffff\n      and\n      eq\n        /* \"MyContract.sol\":1247:1277  require(msg.sender == manager) */\n      tag_44\n      jumpi\n      0x00\n      dup1\n      revert\n    tag_44:\n        /* \"MyContract.sol\":1312:1313  3 */\n      0x03\n        /* \"MyContract.sol\":1295:1302  players */\n      0x01\n        /* \"MyContract.sol\":1295:1309  players.length */\n      dup1\n      sload\n      swap1\n      pop\n        /* \"MyContract.sol\":1295:1313  players.length >=3 */\n      lt\n      iszero\n        /* \"MyContract.sol\":1287:1314  require(players.length >=3) */\n      tag_45\n      jumpi\n      0x00\n      dup1\n      revert\n    tag_45:\n        /* \"MyContract.sol\":1325:1331  uint w */\n      0x00\n        /* \"MyContract.sol\":1334:1348  randomNumber() */\n      tag_46\n        /* \"MyContract.sol\":1334:1346  randomNumber */\n      tag_28\n        /* \"MyContract.sol\":1334:1348  randomNumber() */\n      jump\t// in\n    tag_46:\n        /* \"MyContract.sol\":1325:1348  uint w = randomNumber() */\n      swap1\n      pop\n        /* \"MyContract.sol\":1358:1368  uint index */\n      0x00\n        /* \"MyContract.sol\":1375:1382  players */\n      0x01\n        /* \"MyContract.sol\":1375:1389  players.length */\n      dup1\n      sload\n      swap1\n      pop\n        /* \"MyContract.sol\":1371:1372  w */\n      dup3\n        /* \"MyContract.sol\":1371:1389  w % players.length */\n      tag_47\n      swap2\n      swap1\n      tag_48\n      jump\t// in\n    tag_47:\n        /* \"MyContract.sol\":1358:1389  uint index = w % players.length */\n      swap1\n      pop\n        /* \"MyContract.sol\":1408:1415  players */\n      0x01\n        /* \"MyContract.sol\":1416:1421  index */\n      dup2\n        /* \"MyContract.sol\":1408:1422  players[index] */\n      dup2\n      sload\n      dup2\n      lt\n      tag_49\n      jumpi\n      tag_50\n      tag_51\n      jump\t// in\n    tag_50:\n    tag_49:\n      swap1\n      0x00\n      mstore\n      keccak256(0x00, 0x20)\n      add\n      0x00\n      swap1\n      sload\n      swap1\n      0x0100\n      exp\n      swap1\n      div\n      0xffffffffffffffffffffffffffffffffffffffff\n      and\n        /* \"MyContract.sol\":1399:1405  winner */\n      0x02\n      0x00\n        /* \"MyContract.sol\":1399:1422  winner = players[index] */\n      0x0100\n      exp\n      dup2\n      sload\n      dup2\n      0xffffffffffffffffffffffffffffffffffffffff\n      mul\n      not\n      and\n      swap1\n      dup4\n      0xffffffffffffffffffffffffffffffffffffffff\n      and\n      mul\n      or\n      swap1\n      sstore\n      pop\n        /* \"MyContract.sol\":1432:1438  winner */\n      0x02\n      0x00\n      swap1\n      sload\n      swap1\n      0x0100\n      exp\n      swap1\n      div\n      0xffffffffffffffffffffffffffffffffffffffff\n      and\n        /* \"MyContract.sol\":1432:1447  winner.transfer */\n      0xffffffffffffffffffffffffffffffffffffffff\n      and\n        /* \"MyContract.sol\":1432:1461  winner.transfer(getBalance()) */\n      0x08fc\n        /* \"MyContract.sol\":1448:1460  getBalance() */\n      tag_53\n        /* \"MyContract.sol\":1448:1458  getBalance */\n      tag_15\n        /* \"MyContract.sol\":1448:1460  getBalance() */\n      jump\t// in\n    tag_53:\n        /* \"MyContract.sol\":1432:1461  winner.transfer(getBalance()) */\n      swap1\n      dup2\n      iszero\n      mul\n      swap1\n      mload(0x40)\n      0x00\n      mload(0x40)\n      dup1\n      dup4\n      sub\n      dup2\n      dup6\n      dup9\n      dup9\n      call\n      swap4\n      pop\n      pop\n      pop\n      pop\n      iszero\n      dup1\n      iszero\n      tag_55\n      jumpi\n      returndatasize\n      0x00\n      dup1\n      returndatacopy\n      revert(0x00, returndatasize)\n    tag_55:\n      pop\n        /* \"MyContract.sol\":1505:1506  0 */\n      0x00\n        /* \"MyContract.sol\":1482:1507  new address payable [](0) */\n      0xffffffffffffffff\n      dup2\n      gt\n      iszero\n      tag_56\n      jumpi\n      tag_57\n      tag_58\n      jump\t// in\n    tag_57:\n    tag_56:\n      mload(0x40)\n      swap1\n      dup1\n      dup3\n      mstore\n      dup1\n      0x20\n      mul\n      0x20\n      add\n      dup3\n      add\n      0x40\n      mstore\n      dup1\n      iszero\n      tag_59\n      jumpi\n      dup2\n      0x20\n      add\n      0x20\n      dup3\n      mul\n      dup1\n      calldatasize\n      dup4\n      calldatacopy\n      dup1\n      dup3\n      add\n      swap2\n      pop\n      pop\n      swap1\n      pop\n    tag_59:\n      pop\n        /* \"MyContract.sol\":1472:1479  players */\n      0x01\n        /* \"MyContract.sol\":1472:1507  players = new address payable [](0) */\n      swap1\n      dup1\n      mload\n      swap1\n      0x20\n      add\n      swap1\n      tag_60\n      swap3\n      swap2\n      swap1\n      tag_61\n      jump\t// in\n    tag_60:\n      pop\n        /* \"MyContract.sol\":1237:1515  {... */\n      pop\n      pop\n        /* \"MyContract.sol\":1204:1515  function pickWinner() public... */\n      jump\t// out\n        /* \"MyContract.sol\":951:1198  function randomNumber() public view returns (uint) {... */\n    tag_28:\n        /* \"MyContract.sol\":996:1000  uint */\n      0x00\n        /* \"MyContract.sol\":1012:1035  bytes memory packedData */\n      dup1\n        /* \"MyContract.sol\":1055:1068  block.basefee */\n      basefee\n        /* \"MyContract.sol\":1070:1085  block.timestamp */\n      timestamp\n        /* \"MyContract.sol\":1087:1101  block.coinbase */\n      coinbase\n        /* \"MyContract.sol\":1103:1110  players */\n      0x01\n        /* \"MyContract.sol\":1103:1117  players.length */\n      dup1\n      sload\n      swap1\n      pop\n        /* \"MyContract.sol\":1038:1118  abi.encodePacked(block.basefee, block.timestamp, block.coinbase, players.length) */\n      add(0x20, mload(0x40))\n      tag_63\n      swap5\n      swap4\n      swap3\n      swap2\n      swap1\n      tag_64\n      jump\t// in\n    tag_63:\n      mload(0x40)\n      0x20\n      dup2\n      dup4\n      sub\n      sub\n      dup2\n      mstore\n      swap1\n      0x40\n      mstore\n        /* \"MyContract.sol\":1012:1118  bytes memory packedData = abi.encodePacked(block.basefee, block.timestamp, block.coinbase, players.length) */\n      swap1\n      pop\n        /* \"MyContract.sol\":1128:1140  bytes32 hash */\n      0x00\n        /* \"MyContract.sol\":1153:1163  packedData */\n      dup2\n        /* \"MyContract.sol\":1143:1164  keccak256(packedData) */\n      dup1\n      mload\n      swap1\n      0x20\n      add\n      keccak256\n        /* \"MyContract.sol\":1128:1164  bytes32 hash = keccak256(packedData) */\n      swap1\n      pop\n        /* \"MyContract.sol\":1186:1190  hash */\n      dup1\n        /* \"MyContract.sol\":1181:1191  uint(hash) */\n      0x00\n      shr\n        /* \"MyContract.sol\":1174:1191  return uint(hash) */\n      swap3\n      pop\n      pop\n      pop\n        /* \"MyContract.sol\":951:1198  function randomNumber() public view returns (uint) {... */\n      swap1\n      jump\t// out\n        /* \"MyContract.sol\":248:277  address payable public winner */\n    tag_32:\n      0x02\n      0x00\n      swap1\n      sload\n      swap1\n      0x0100\n      exp\n      swap1\n      div\n      0xffffffffffffffffffffffffffffffffffffffff\n      and\n      dup2\n      jump\t// out\n        /* \"MyContract.sol\":176:208  address payable[] public players */\n    tag_39:\n      0x01\n      dup2\n      dup2\n      sload\n      dup2\n      lt\n      tag_65\n      jumpi\n      0x00\n      dup1\n      revert\n    tag_65:\n      swap1\n      0x00\n      mstore\n      keccak256(0x00, 0x20)\n      add\n      0x00\n      swap2\n      pop\n      sload\n      swap1\n      0x0100\n      exp\n      swap1\n      div\n      0xffffffffffffffffffffffffffffffffffffffff\n      and\n      dup2\n      jump\t// out\n    tag_61:\n      dup3\n      dup1\n      sload\n      dup3\n      dup3\n      sstore\n      swap1\n      0x00\n      mstore\n      keccak256(0x00, 0x20)\n      swap1\n      dup2\n      add\n      swap3\n      dup3\n      iszero\n      tag_67\n      jumpi\n      swap2\n      0x20\n      mul\n      dup3\n      add\n    tag_68:\n      dup3\n      dup2\n      gt\n      iszero\n      tag_69\n      jumpi\n      dup3\n      mload\n      dup3\n      exp(0x0100, 0x00)\n      dup2\n      sload\n      dup2\n      0xffffffffffffffffffffffffffffffffffffffff\n      mul\n      not\n      and\n      swap1\n      dup4\n      0xffffffffffffffffffffffffffffffffffffffff\n      and\n      mul\n      or\n      swap1\n      sstore\n      pop\n      swap2\n      0x20\n      add\n      swap2\n      swap1\n      0x01\n      add\n      swap1\n      jump(tag_68)\n    tag_69:\n    tag_67:\n      pop\n      swap1\n      pop\n      tag_70\n      swap2\n      swap1\n      tag_71\n      jump\t// in\n    tag_70:\n      pop\n      swap1\n      jump\t// out\n    tag_71:\n    tag_72:\n      dup1\n      dup3\n      gt\n      iszero\n      tag_73\n      jumpi\n      0x00\n      dup2\n      0x00\n      swap1\n      sstore\n      pop\n      0x01\n      add\n      jump(tag_72)\n    tag_73:\n      pop\n      swap1\n      jump\t// out\n        /* \"#utility.yul\":7:84   */\n    tag_74:\n        /* \"#utility.yul\":44:51   */\n      0x00\n        /* \"#utility.yul\":73:78   */\n      dup2\n        /* \"#utility.yul\":62:78   */\n      swap1\n      pop\n        /* \"#utility.yul\":7:84   */\n      swap2\n      swap1\n      pop\n      jump\t// out\n        /* \"#utility.yul\":90:208   */\n    tag_75:\n        /* \"#utility.yul\":177:201   */\n      tag_96\n        /* \"#utility.yul\":195:200   */\n      dup2\n        /* \"#utility.yul\":177:201   */\n      tag_74\n      jump\t// in\n    tag_96:\n        /* \"#utility.yul\":172:175   */\n      dup3\n        /* \"#utility.yul\":165:202   */\n      mstore\n        /* \"#utility.yul\":90:208   */\n      pop\n      pop\n      jump\t// out\n        /* \"#utility.yul\":214:436   */\n    tag_17:\n        /* \"#utility.yul\":307:311   */\n      0x00\n        /* \"#utility.yul\":345:347   */\n      0x20\n        /* \"#utility.yul\":334:343   */\n      dup3\n        /* \"#utility.yul\":330:348   */\n      add\n        /* \"#utility.yul\":322:348   */\n      swap1\n      pop\n        /* \"#utility.yul\":358:429   */\n      tag_98\n        /* \"#utility.yul\":426:427   */\n      0x00\n        /* \"#utility.yul\":415:424   */\n      dup4\n        /* \"#utility.yul\":411:428   */\n      add\n        /* \"#utility.yul\":402:408   */\n      dup5\n        /* \"#utility.yul\":358:429   */\n      tag_75\n      jump\t// in\n    tag_98:\n        /* \"#utility.yul\":214:436   */\n      swap3\n      swap2\n      pop\n      pop\n      jump\t// out\n        /* \"#utility.yul\":442:568   */\n    tag_76:\n        /* \"#utility.yul\":479:486   */\n      0x00\n        /* \"#utility.yul\":519:561   */\n      0xffffffffffffffffffffffffffffffffffffffff\n        /* \"#utility.yul\":512:517   */\n      dup3\n        /* \"#utility.yul\":508:562   */\n      and\n        /* \"#utility.yul\":497:562   */\n      swap1\n      pop\n        /* \"#utility.yul\":442:568   */\n      swap2\n      swap1\n      pop\n      jump\t// out\n        /* \"#utility.yul\":574:670   */\n    tag_77:\n        /* \"#utility.yul\":611:618   */\n      0x00\n        /* \"#utility.yul\":640:664   */\n      tag_101\n        /* \"#utility.yul\":658:663   */\n      dup3\n        /* \"#utility.yul\":640:664   */\n      tag_76\n      jump\t// in\n    tag_101:\n        /* \"#utility.yul\":629:664   */\n      swap1\n      pop\n        /* \"#utility.yul\":574:670   */\n      swap2\n      swap1\n      pop\n      jump\t// out\n        /* \"#utility.yul\":676:794   */\n    tag_78:\n        /* \"#utility.yul\":763:787   */\n      tag_103\n        /* \"#utility.yul\":781:786   */\n      dup2\n        /* \"#utility.yul\":763:787   */\n      tag_77\n      jump\t// in\n    tag_103:\n        /* \"#utility.yul\":758:761   */\n      dup3\n        /* \"#utility.yul\":751:788   */\n      mstore\n        /* \"#utility.yul\":676:794   */\n      pop\n      pop\n      jump\t// out\n        /* \"#utility.yul\":800:1022   */\n    tag_22:\n        /* \"#utility.yul\":893:897   */\n      0x00\n        /* \"#utility.yul\":931:933   */\n      0x20\n        /* \"#utility.yul\":920:929   */\n      dup3\n        /* \"#utility.yul\":916:934   */\n      add\n        /* \"#utility.yul\":908:934   */\n      swap1\n      pop\n        /* \"#utility.yul\":944:1015   */\n      tag_105\n        /* \"#utility.yul\":1012:1013   */\n      0x00\n        /* \"#utility.yul\":1001:1010   */\n      dup4\n        /* \"#utility.yul\":997:1014   */\n      add\n        /* \"#utility.yul\":988:994   */\n      dup5\n        /* \"#utility.yul\":944:1015   */\n      tag_78\n      jump\t// in\n    tag_105:\n        /* \"#utility.yul\":800:1022   */\n      swap3\n      swap2\n      pop\n      pop\n      jump\t// out\n        /* \"#utility.yul\":1028:1132   */\n    tag_79:\n        /* \"#utility.yul\":1073:1080   */\n      0x00\n        /* \"#utility.yul\":1102:1126   */\n      tag_107\n        /* \"#utility.yul\":1120:1125   */\n      dup3\n        /* \"#utility.yul\":1102:1126   */\n      tag_76\n      jump\t// in\n    tag_107:\n        /* \"#utility.yul\":1091:1126   */\n      swap1\n      pop\n        /* \"#utility.yul\":1028:1132   */\n      swap2\n      swap1\n      pop\n      jump\t// out\n        /* \"#utility.yul\":1138:1280   */\n    tag_80:\n        /* \"#utility.yul\":1241:1273   */\n      tag_109\n        /* \"#utility.yul\":1267:1272   */\n      dup2\n        /* \"#utility.yul\":1241:1273   */\n      tag_79\n      jump\t// in\n    tag_109:\n        /* \"#utility.yul\":1236:1239   */\n      dup3\n        /* \"#utility.yul\":1229:1274   */\n      mstore\n        /* \"#utility.yul\":1138:1280   */\n      pop\n      pop\n      jump\t// out\n        /* \"#utility.yul\":1286:1540   */\n    tag_34:\n        /* \"#utility.yul\":1395:1399   */\n      0x00\n        /* \"#utility.yul\":1433:1435   */\n      0x20\n        /* \"#utility.yul\":1422:1431   */\n      dup3\n        /* \"#utility.yul\":1418:1436   */\n      add\n        /* \"#utility.yul\":1410:1436   */\n      swap1\n      pop\n        /* \"#utility.yul\":1446:1533   */\n      tag_111\n        /* \"#utility.yul\":1530:1531   */\n      0x00\n        /* \"#utility.yul\":1519:1528   */\n      dup4\n        /* \"#utility.yul\":1515:1532   */\n      add\n        /* \"#utility.yul\":1506:1512   */\n      dup5\n        /* \"#utility.yul\":1446:1533   */\n      tag_80\n      jump\t// in\n    tag_111:\n        /* \"#utility.yul\":1286:1540   */\n      swap3\n      swap2\n      pop\n      pop\n      jump\t// out\n        /* \"#utility.yul\":1627:1744   */\n    tag_82:\n        /* \"#utility.yul\":1736:1737   */\n      0x00\n        /* \"#utility.yul\":1733:1734   */\n      dup1\n        /* \"#utility.yul\":1726:1738   */\n      revert\n        /* \"#utility.yul\":1873:1995   */\n    tag_84:\n        /* \"#utility.yul\":1946:1970   */\n      tag_116\n        /* \"#utility.yul\":1964:1969   */\n      dup2\n        /* \"#utility.yul\":1946:1970   */\n      tag_74\n      jump\t// in\n    tag_116:\n        /* \"#utility.yul\":1939:1944   */\n      dup2\n        /* \"#utility.yul\":1936:1971   */\n      eq\n        /* \"#utility.yul\":1926:1989   */\n      tag_117\n      jumpi\n        /* \"#utility.yul\":1985:1986   */\n      0x00\n        /* \"#utility.yul\":1982:1983   */\n      dup1\n        /* \"#utility.yul\":1975:1987   */\n      revert\n        /* \"#utility.yul\":1926:1989   */\n    tag_117:\n        /* \"#utility.yul\":1873:1995   */\n      pop\n      jump\t// out\n        /* \"#utility.yul\":2001:2140   */\n    tag_85:\n        /* \"#utility.yul\":2047:2052   */\n      0x00\n        /* \"#utility.yul\":2085:2091   */\n      dup2\n        /* \"#utility.yul\":2072:2092   */\n      calldataload\n        /* \"#utility.yul\":2063:2092   */\n      swap1\n      pop\n        /* \"#utility.yul\":2101:2134   */\n      tag_119\n        /* \"#utility.yul\":2128:2133   */\n      dup2\n        /* \"#utility.yul\":2101:2134   */\n      tag_84\n      jump\t// in\n    tag_119:\n        /* \"#utility.yul\":2001:2140   */\n      swap3\n      swap2\n      pop\n      pop\n      jump\t// out\n        /* \"#utility.yul\":2146:2475   */\n    tag_38:\n        /* \"#utility.yul\":2205:2211   */\n      0x00\n        /* \"#utility.yul\":2254:2256   */\n      0x20\n        /* \"#utility.yul\":2242:2251   */\n      dup3\n        /* \"#utility.yul\":2233:2240   */\n      dup5\n        /* \"#utility.yul\":2229:2252   */\n      sub\n        /* \"#utility.yul\":2225:2257   */\n      slt\n        /* \"#utility.yul\":2222:2341   */\n      iszero\n      tag_121\n      jumpi\n        /* \"#utility.yul\":2260:2339   */\n      tag_122\n      tag_82\n      jump\t// in\n    tag_122:\n        /* \"#utility.yul\":2222:2341   */\n    tag_121:\n        /* \"#utility.yul\":2380:2381   */\n      0x00\n        /* \"#utility.yul\":2405:2458   */\n      tag_123\n        /* \"#utility.yul\":2450:2457   */\n      dup5\n        /* \"#utility.yul\":2441:2447   */\n      dup3\n        /* \"#utility.yul\":2430:2439   */\n      dup6\n        /* \"#utility.yul\":2426:2448   */\n      add\n        /* \"#utility.yul\":2405:2458   */\n      tag_85\n      jump\t// in\n    tag_123:\n        /* \"#utility.yul\":2395:2458   */\n      swap2\n      pop\n        /* \"#utility.yul\":2351:2468   */\n      pop\n        /* \"#utility.yul\":2146:2475   */\n      swap3\n      swap2\n      pop\n      pop\n      jump\t// out\n        /* \"#utility.yul\":2481:2661   */\n    tag_86:\n        /* \"#utility.yul\":2529:2606   */\n      0x4e487b7100000000000000000000000000000000000000000000000000000000\n        /* \"#utility.yul\":2526:2527   */\n      0x00\n        /* \"#utility.yul\":2519:2607   */\n      mstore\n        /* \"#utility.yul\":2626:2630   */\n      0x12\n        /* \"#utility.yul\":2623:2624   */\n      0x04\n        /* \"#utility.yul\":2616:2631   */\n      mstore\n        /* \"#utility.yul\":2650:2654   */\n      0x24\n        /* \"#utility.yul\":2647:2648   */\n      0x00\n        /* \"#utility.yul\":2640:2655   */\n      revert\n        /* \"#utility.yul\":2667:2843   */\n    tag_48:\n        /* \"#utility.yul\":2699:2700   */\n      0x00\n        /* \"#utility.yul\":2716:2736   */\n      tag_126\n        /* \"#utility.yul\":2734:2735   */\n      dup3\n        /* \"#utility.yul\":2716:2736   */\n      tag_74\n      jump\t// in\n    tag_126:\n        /* \"#utility.yul\":2711:2736   */\n      swap2\n      pop\n        /* \"#utility.yul\":2750:2770   */\n      tag_127\n        /* \"#utility.yul\":2768:2769   */\n      dup4\n        /* \"#utility.yul\":2750:2770   */\n      tag_74\n      jump\t// in\n    tag_127:\n        /* \"#utility.yul\":2745:2770   */\n      swap3\n      pop\n        /* \"#utility.yul\":2789:2790   */\n      dup3\n        /* \"#utility.yul\":2779:2814   */\n      tag_128\n      jumpi\n        /* \"#utility.yul\":2794:2812   */\n      tag_129\n      tag_86\n      jump\t// in\n    tag_129:\n        /* \"#utility.yul\":2779:2814   */\n    tag_128:\n        /* \"#utility.yul\":2835:2836   */\n      dup3\n        /* \"#utility.yul\":2832:2833   */\n      dup3\n        /* \"#utility.yul\":2828:2837   */\n      mod\n        /* \"#utility.yul\":2823:2837   */\n      swap1\n      pop\n        /* \"#utility.yul\":2667:2843   */\n      swap3\n      swap2\n      pop\n      pop\n      jump\t// out\n        /* \"#utility.yul\":2849:3029   */\n    tag_51:\n        /* \"#utility.yul\":2897:2974   */\n      0x4e487b7100000000000000000000000000000000000000000000000000000000\n        /* \"#utility.yul\":2894:2895   */\n      0x00\n        /* \"#utility.yul\":2887:2975   */\n      mstore\n        /* \"#utility.yul\":2994:2998   */\n      0x32\n        /* \"#utility.yul\":2991:2992   */\n      0x04\n        /* \"#utility.yul\":2984:2999   */\n      mstore\n        /* \"#utility.yul\":3018:3022   */\n      0x24\n        /* \"#utility.yul\":3015:3016   */\n      0x00\n        /* \"#utility.yul\":3008:3023   */\n      revert\n        /* \"#utility.yul\":3035:3215   */\n    tag_58:\n        /* \"#utility.yul\":3083:3160   */\n      0x4e487b7100000000000000000000000000000000000000000000000000000000\n        /* \"#utility.yul\":3080:3081   */\n      0x00\n        /* \"#utility.yul\":3073:3161   */\n      mstore\n        /* \"#utility.yul\":3180:3184   */\n      0x41\n        /* \"#utility.yul\":3177:3178   */\n      0x04\n        /* \"#utility.yul\":3170:3185   */\n      mstore\n        /* \"#utility.yul\":3204:3208   */\n      0x24\n        /* \"#utility.yul\":3201:3202   */\n      0x00\n        /* \"#utility.yul\":3194:3209   */\n      revert\n        /* \"#utility.yul\":3221:3300   */\n    tag_87:\n        /* \"#utility.yul\":3260:3267   */\n      0x00\n        /* \"#utility.yul\":3289:3294   */\n      dup2\n        /* \"#utility.yul\":3278:3294   */\n      swap1\n      pop\n        /* \"#utility.yul\":3221:3300   */\n      swap2\n      swap1\n      pop\n      jump\t// out\n        /* \"#utility.yul\":3306:3463   */\n    tag_88:\n        /* \"#utility.yul\":3411:3456   */\n      tag_134\n        /* \"#utility.yul\":3431:3455   */\n      tag_135\n        /* \"#utility.yul\":3449:3454   */\n      dup3\n        /* \"#utility.yul\":3431:3455   */\n      tag_74\n      jump\t// in\n    tag_135:\n        /* \"#utility.yul\":3411:3456   */\n      tag_87\n      jump\t// in\n    tag_134:\n        /* \"#utility.yul\":3406:3409   */\n      dup3\n        /* \"#utility.yul\":3399:3457   */\n      mstore\n        /* \"#utility.yul\":3306:3463   */\n      pop\n      pop\n      jump\t// out\n        /* \"#utility.yul\":3469:3563   */\n    tag_89:\n        /* \"#utility.yul\":3502:3510   */\n      0x00\n        /* \"#utility.yul\":3550:3555   */\n      dup2\n        /* \"#utility.yul\":3546:3548   */\n      0x60\n        /* \"#utility.yul\":3542:3556   */\n      shl\n        /* \"#utility.yul\":3521:3556   */\n      swap1\n      pop\n        /* \"#utility.yul\":3469:3563   */\n      swap2\n      swap1\n      pop\n      jump\t// out\n        /* \"#utility.yul\":3569:3663   */\n    tag_90:\n        /* \"#utility.yul\":3608:3615   */\n      0x00\n        /* \"#utility.yul\":3637:3657   */\n      tag_138\n        /* \"#utility.yul\":3651:3656   */\n      dup3\n        /* \"#utility.yul\":3637:3657   */\n      tag_89\n      jump\t// in\n    tag_138:\n        /* \"#utility.yul\":3626:3657   */\n      swap1\n      pop\n        /* \"#utility.yul\":3569:3663   */\n      swap2\n      swap1\n      pop\n      jump\t// out\n        /* \"#utility.yul\":3669:3777   */\n    tag_91:\n        /* \"#utility.yul\":3716:3723   */\n      0x00\n        /* \"#utility.yul\":3745:3771   */\n      tag_140\n        /* \"#utility.yul\":3765:3770   */\n      dup3\n        /* \"#utility.yul\":3745:3771   */\n      tag_90\n      jump\t// in\n    tag_140:\n        /* \"#utility.yul\":3734:3771   */\n      swap1\n      pop\n        /* \"#utility.yul\":3669:3777   */\n      swap2\n      swap1\n      pop\n      jump\t// out\n        /* \"#utility.yul\":3783:3972   */\n    tag_92:\n        /* \"#utility.yul\":3904:3965   */\n      tag_142\n        /* \"#utility.yul\":3932:3964   */\n      tag_143\n        /* \"#utility.yul\":3958:3963   */\n      dup3\n        /* \"#utility.yul\":3932:3964   */\n      tag_79\n      jump\t// in\n    tag_143:\n        /* \"#utility.yul\":3904:3965   */\n      tag_91\n      jump\t// in\n    tag_142:\n        /* \"#utility.yul\":3899:3902   */\n      dup3\n        /* \"#utility.yul\":3892:3966   */\n      mstore\n        /* \"#utility.yul\":3783:3972   */\n      pop\n      pop\n      jump\t// out\n        /* \"#utility.yul\":3978:4689   */\n    tag_64:\n        /* \"#utility.yul\":4190:4193   */\n      0x00\n        /* \"#utility.yul\":4205:4280   */\n      tag_145\n        /* \"#utility.yul\":4276:4279   */\n      dup3\n        /* \"#utility.yul\":4267:4273   */\n      dup8\n        /* \"#utility.yul\":4205:4280   */\n      tag_88\n      jump\t// in\n    tag_145:\n        /* \"#utility.yul\":4305:4307   */\n      0x20\n        /* \"#utility.yul\":4300:4303   */\n      dup3\n        /* \"#utility.yul\":4296:4308   */\n      add\n        /* \"#utility.yul\":4289:4308   */\n      swap2\n      pop\n        /* \"#utility.yul\":4318:4393   */\n      tag_146\n        /* \"#utility.yul\":4389:4392   */\n      dup3\n        /* \"#utility.yul\":4380:4386   */\n      dup7\n        /* \"#utility.yul\":4318:4393   */\n      tag_88\n      jump\t// in\n    tag_146:\n        /* \"#utility.yul\":4418:4420   */\n      0x20\n        /* \"#utility.yul\":4413:4416   */\n      dup3\n        /* \"#utility.yul\":4409:4421   */\n      add\n        /* \"#utility.yul\":4402:4421   */\n      swap2\n      pop\n        /* \"#utility.yul\":4431:4522   */\n      tag_147\n        /* \"#utility.yul\":4518:4521   */\n      dup3\n        /* \"#utility.yul\":4509:4515   */\n      dup6\n        /* \"#utility.yul\":4431:4522   */\n      tag_92\n      jump\t// in\n    tag_147:\n        /* \"#utility.yul\":4547:4549   */\n      0x14\n        /* \"#utility.yul\":4542:4545   */\n      dup3\n        /* \"#utility.yul\":4538:4550   */\n      add\n        /* \"#utility.yul\":4531:4550   */\n      swap2\n      pop\n        /* \"#utility.yul\":4560:4635   */\n      tag_148\n        /* \"#utility.yul\":4631:4634   */\n      dup3\n        /* \"#utility.yul\":4622:4628   */\n      dup5\n        /* \"#utility.yul\":4560:4635   */\n      tag_88\n      jump\t// in\n    tag_148:\n        /* \"#utility.yul\":4660:4662   */\n      0x20\n        /* \"#utility.yul\":4655:4658   */\n      dup3\n        /* \"#utility.yul\":4651:4663   */\n      add\n        /* \"#utility.yul\":4644:4663   */\n      swap2\n      pop\n        /* \"#utility.yul\":4680:4683   */\n      dup2\n        /* \"#utility.yul\":4673:4683   */\n      swap1\n      pop\n        /* \"#utility.yul\":3978:4689   */\n      swap6\n      swap5\n      pop\n      pop\n      pop\n      pop\n      pop\n      jump\t// out\n\n    auxdata: 0xa2646970667358221220183053ff004af47f0d2275a45ef674457bf764755b48c76b04da630f55e58ed964736f6c63430008120033\n}\n",
				"bytecode": {
					"linkReferences": {},
					"object": "608060405234801561001057600080fd5b50336000806101000a81548173ffffffffffffffffffffffffffffffffffffffff021916908373ffffffffffffffffffffffffffffffffffffffff160217905550610864806100606000396000f3fe6080604052600436106100595760003560e01c806312065fe0146100d8578063481c6a75146101035780635d495aea1461012e578063ccbac9f514610145578063dfbf53ae14610170578063f71d96cb1461019b576100d3565b366100d35764e8d4a51000341461006f57600080fd5b6001339080600181540180825580915050600190039060005260206000200160009091909190916101000a81548173ffffffffffffffffffffffffffffffffffffffff021916908373ffffffffffffffffffffffffffffffffffffffff1602179055005b600080fd5b3480156100e457600080fd5b506100ed6101d8565b6040516100fa91906105a8565b60405180910390f35b34801561010f57600080fd5b50610118610239565b6040516101259190610604565b60405180910390f35b34801561013a57600080fd5b5061014361025d565b005b34801561015157600080fd5b5061015a61043c565b60405161016791906105a8565b60405180910390f35b34801561017c57600080fd5b50610185610483565b6040516101929190610640565b60405180910390f35b3480156101a757600080fd5b506101c260048036038101906101bd919061068c565b6104a9565b6040516101cf9190610640565b60405180910390f35b60008060009054906101000a900473ffffffffffffffffffffffffffffffffffffffff1673ffffffffffffffffffffffffffffffffffffffff163373ffffffffffffffffffffffffffffffffffffffff161461023357600080fd5b47905090565b60008054906101000a900473ffffffffffffffffffffffffffffffffffffffff1681565b60008054906101000a900473ffffffffffffffffffffffffffffffffffffffff1673ffffffffffffffffffffffffffffffffffffffff163373ffffffffffffffffffffffffffffffffffffffff16146102b557600080fd5b600360018054905010156102c857600080fd5b60006102d261043c565b90506000600180549050826102e791906106e8565b9050600181815481106102fd576102fc610719565b5b9060005260206000200160009054906101000a900473ffffffffffffffffffffffffffffffffffffffff16600260006101000a81548173ffffffffffffffffffffffffffffffffffffffff021916908373ffffffffffffffffffffffffffffffffffffffff160217905550600260009054906101000a900473ffffffffffffffffffffffffffffffffffffffff1673ffffffffffffffffffffffffffffffffffffffff166108fc6103ac6101d8565b9081150290604051600060405180830381858888f193505050501580156103d7573d6000803e3d6000fd5b50600067ffffffffffffffff8111156103f3576103f2610748565b5b6040519080825280602002602001820160405280156104215781602001602082028036833780820191505090505b50600190805190602001906104379291906104e8565b505050565b60008048424160018054905060405160200161045b94939291906107e0565b60405160208183030381529060405290506000818051906020012090508060001c9250505090565b600260009054906101000a900473ffffffffffffffffffffffffffffffffffffffff1681565b600181815481106104b957600080fd5b906000526020600020016000915054906101000a900473ffffffffffffffffffffffffffffffffffffffff1681565b828054828255906000526020600020908101928215610561579160200282015b828111156105605782518260006101000a81548173ffffffffffffffffffffffffffffffffffffffff021916908373ffffffffffffffffffffffffffffffffffffffff16021790555091602001919060010190610508565b5b50905061056e9190610572565b5090565b5b8082111561058b576000816000905550600101610573565b5090565b6000819050919050565b6105a28161058f565b82525050565b60006020820190506105bd6000830184610599565b92915050565b600073ffffffffffffffffffffffffffffffffffffffff82169050919050565b60006105ee826105c3565b9050919050565b6105fe816105e3565b82525050565b600060208201905061061960008301846105f5565b92915050565b600061062a826105c3565b9050919050565b61063a8161061f565b82525050565b60006020820190506106556000830184610631565b92915050565b600080fd5b6106698161058f565b811461067457600080fd5b50565b60008135905061068681610660565b92915050565b6000602082840312156106a2576106a161065b565b5b60006106b084828501610677565b91505092915050565b7f4e487b7100000000000000000000000000000000000000000000000000000000600052601260045260246000fd5b60006106f38261058f565b91506106fe8361058f565b92508261070e5761070d6106b9565b5b828206905092915050565b7f4e487b7100000000000000000000000000000000000000000000000000000000600052603260045260246000fd5b7f4e487b7100000000000000000000000000000000000000000000000000000000600052604160045260246000fd5b6000819050919050565b61079261078d8261058f565b610777565b82525050565b60008160601b9050919050565b60006107b082610798565b9050919050565b60006107c2826107a5565b9050919050565b6107da6107d58261061f565b6107b7565b82525050565b60006107ec8287610781565b6020820191506107fc8286610781565b60208201915061080c82856107c9565b60148201915061081c8284610781565b6020820191508190509594505050505056fea2646970667358221220183053ff004af47f0d2275a45ef674457bf764755b48c76b04da630f55e58ed964736f6c63430008120033",
					"opcodes": "PUSH1 0x80 PUSH1 0x40 MSTORE CALLVALUE DUP1 ISZERO PUSH2 0x10 JUMPI PUSH1 0x0 DUP1 REVERT JUMPDEST POP CALLER PUSH1 0x0 DUP1 PUSH2 0x100 EXP DUP2 SLOAD DUP2 PUSH20 0xFFFFFFFFFFFFFFFFFFFFFFFFFFFFFFFFFFFFFFFF MUL NOT AND SWAP1 DUP4 PUSH20 0xFFFFFFFFFFFFFFFFFFFFFFFFFFFFFFFFFFFFFFFF AND MUL OR SWAP1 SSTORE POP PUSH2 0x864 DUP1 PUSH2 0x60 PUSH1 0x0 CODECOPY PUSH1 0x0 RETURN INVALID PUSH1 0x80 PUSH1 0x40 MSTORE PUSH1 0x4 CALLDATASIZE LT PUSH2 0x59 JUMPI PUSH1 0x0 CALLDATALOAD PUSH1 0xE0 SHR DUP1 PUSH4 0x12065FE0 EQ PUSH2 0xD8 JUMPI DUP1 PUSH4 0x481C6A75 EQ PUSH2 0x103 JUMPI DUP1 PUSH4 0x5D495AEA EQ PUSH2 0x12E JUMPI DUP1 PUSH4 0xCCBAC9F5 EQ PUSH2 0x145 JUMPI DUP1 PUSH4 0xDFBF53AE EQ PUSH2 0x170 JUMPI DUP1 PUSH4 0xF71D96CB EQ PUSH2 0x19B JUMPI PUSH2 0xD3 JUMP JUMPDEST CALLDATASIZE PUSH2 0xD3 JUMPI PUSH5 0xE8D4A51000 CALLVALUE EQ PUSH2 0x6F JUMPI PUSH1 0x0 DUP1 REVERT JUMPDEST PUSH1 0x1 CALLER SWAP1 DUP1 PUSH1 0x1 DUP2 SLOAD ADD DUP1 DUP3 SSTORE DUP1 SWAP2 POP POP PUSH1 0x1 SWAP1 SUB SWAP1 PUSH1 0x0 MSTORE PUSH1 0x20 PUSH1 0x0 KECCAK256 ADD PUSH1 0x0 SWAP1 SWAP2 SWAP1 SWAP2 SWAP1 SWAP2 PUSH2 0x100 EXP DUP2 SLOAD DUP2 PUSH20 0xFFFFFFFFFFFFFFFFFFFFFFFFFFFFFFFFFFFFFFFF MUL NOT AND SWAP1 DUP4 PUSH20 0xFFFFFFFFFFFFFFFFFFFFFFFFFFFFFFFFFFFFFFFF AND MUL OR SWAP1 SSTORE STOP JUMPDEST PUSH1 0x0 DUP1 REVERT JUMPDEST CALLVALUE DUP1 ISZERO PUSH2 0xE4 JUMPI PUSH1 0x0 DUP1 REVERT JUMPDEST POP PUSH2 0xED PUSH2 0x1D8 JUMP JUMPDEST PUSH1 0x40 MLOAD PUSH2 0xFA SWAP2 SWAP1 PUSH2 0x5A8 JUMP JUMPDEST PUSH1 0x40 MLOAD DUP1 SWAP2 SUB SWAP1 RETURN JUMPDEST CALLVALUE DUP1 ISZERO PUSH2 0x10F JUMPI PUSH1 0x0 DUP1 REVERT JUMPDEST POP PUSH2 0x118 PUSH2 0x239 JUMP JUMPDEST PUSH1 0x40 MLOAD PUSH2 0x125 SWAP2 SWAP1 PUSH2 0x604 JUMP JUMPDEST PUSH1 0x40 MLOAD DUP1 SWAP2 SUB SWAP1 RETURN JUMPDEST CALLVALUE DUP1 ISZERO PUSH2 0x13A JUMPI PUSH1 0x0 DUP1 REVERT JUMPDEST POP PUSH2 0x143 PUSH2 0x25D JUMP JUMPDEST STOP JUMPDEST CALLVALUE DUP1 ISZERO PUSH2 0x151 JUMPI PUSH1 0x0 DUP1 REVERT JUMPDEST POP PUSH2 0x15A PUSH2 0x43C JUMP JUMPDEST PUSH1 0x40 MLOAD PUSH2 0x167 SWAP2 SWAP1 PUSH2 0x5A8 JUMP JUMPDEST PUSH1 0x40 MLOAD DUP1 SWAP2 SUB SWAP1 RETURN JUMPDEST CALLVALUE DUP1 ISZERO PUSH2 0x17C JUMPI PUSH1 0x0 DUP1 REVERT JUMPDEST POP PUSH2 0x185 PUSH2 0x483 JUMP JUMPDEST PUSH1 0x40 MLOAD PUSH2 0x192 SWAP2 SWAP1 PUSH2 0x640 JUMP JUMPDEST PUSH1 0x40 MLOAD DUP1 SWAP2 SUB SWAP1 RETURN JUMPDEST CALLVALUE DUP1 ISZERO PUSH2 0x1A7 JUMPI PUSH1 0x0 DUP1 REVERT JUMPDEST POP PUSH2 0x1C2 PUSH1 0x4 DUP1 CALLDATASIZE SUB DUP2 ADD SWAP1 PUSH2 0x1BD SWAP2 SWAP1 PUSH2 0x68C JUMP JUMPDEST PUSH2 0x4A9 JUMP JUMPDEST PUSH1 0x40 MLOAD PUSH2 0x1CF SWAP2 SWAP1 PUSH2 0x640 JUMP JUMPDEST PUSH1 0x40 MLOAD DUP1 SWAP2 SUB SWAP1 RETURN JUMPDEST PUSH1 0x0 DUP1 PUSH1 0x0 SWAP1 SLOAD SWAP1 PUSH2 0x100 EXP SWAP1 DIV PUSH20 0xFFFFFFFFFFFFFFFFFFFFFFFFFFFFFFFFFFFFFFFF AND PUSH20 0xFFFFFFFFFFFFFFFFFFFFFFFFFFFFFFFFFFFFFFFF AND CALLER PUSH20 0xFFFFFFFFFFFFFFFFFFFFFFFFFFFFFFFFFFFFFFFF AND EQ PUSH2 0x233 JUMPI PUSH1 0x0 DUP1 REVERT JUMPDEST SELFBALANCE SWAP1 POP SWAP1 JUMP JUMPDEST PUSH1 0x0 DUP1 SLOAD SWAP1 PUSH2 0x100 EXP SWAP1 DIV PUSH20 0xFFFFFFFFFFFFFFFFFFFFFFFFFFFFFFFFFFFFFFFF AND DUP2 JUMP JUMPDEST PUSH1 0x0 DUP1 SLOAD SWAP1 PUSH2 0x100 EXP SWAP1 DIV PUSH20 0xFFFFFFFFFFFFFFFFFFFFFFFFFFFFFFFFFFFFFFFF AND PUSH20 0xFFFFFFFFFFFFFFFFFFFFFFFFFFFFFFFFFFFFFFFF AND CALLER PUSH20 0xFFFFFFFFFFFFFFFFFFFFFFFFFFFFFFFFFFFFFFFF AND EQ PUSH2 0x2B5 JUMPI PUSH1 0x0 DUP1 REVERT JUMPDEST PUSH1 0x3 PUSH1 0x1 DUP1 SLOAD SWAP1 POP LT ISZERO PUSH2 0x2C8 JUMPI PUSH1 0x0 DUP1 REVERT JUMPDEST PUSH1 0x0 PUSH2 0x2D2 PUSH2 0x43C JUMP JUMPDEST SWAP1 POP PUSH1 0x0 PUSH1 0x1 DUP1 SLOAD SWAP1 POP DUP3 PUSH2 0x2E7 SWAP2 SWAP1 PUSH2 0x6E8 JUMP JUMPDEST SWAP1 POP PUSH1 0x1 DUP2 DUP2 SLOAD DUP2 LT PUSH2 0x2FD JUMPI PUSH2 0x2FC PUSH2 0x719 JUMP JUMPDEST JUMPDEST SWAP1 PUSH1 0x0 MSTORE PUSH1 0x20 PUSH1 0x0 KECCAK256 ADD PUSH1 0x0 SWAP1 SLOAD SWAP1 PUSH2 0x100 EXP SWAP1 DIV PUSH20 0xFFFFFFFFFFFFFFFFFFFFFFFFFFFFFFFFFFFFFFFF AND PUSH1 0x2 PUSH1 0x0 PUSH2 0x100 EXP DUP2 SLOAD DUP2 PUSH20 0xFFFFFFFFFFFFFFFFFFFFFFFFFFFFFFFFFFFFFFFF MUL NOT AND SWAP1 DUP4 PUSH20 0xFFFFFFFFFFFFFFFFFFFFFFFFFFFFFFFFFFFFFFFF AND MUL OR SWAP1 SSTORE POP PUSH1 0x2 PUSH1 0x0 SWAP1 SLOAD SWAP1 PUSH2 0x100 EXP SWAP1 DIV PUSH20 0xFFFFFFFFFFFFFFFFFFFFFFFFFFFFFFFFFFFFFFFF AND PUSH20 0xFFFFFFFFFFFFFFFFFFFFFFFFFFFFFFFFFFFFFFFF AND PUSH2 0x8FC PUSH2 0x3AC PUSH2 0x1D8 JUMP JUMPDEST SWAP1 DUP2 ISZERO MUL SWAP1 PUSH1 0x40 MLOAD PUSH1 0x0 PUSH1 0x40 MLOAD DUP1 DUP4 SUB DUP2 DUP6 DUP9 DUP9 CALL SWAP4 POP POP POP POP ISZERO DUP1 ISZERO PUSH2 0x3D7 JUMPI RETURNDATASIZE PUSH1 0x0 DUP1 RETURNDATACOPY RETURNDATASIZE PUSH1 0x0 REVERT JUMPDEST POP PUSH1 0x0 PUSH8 0xFFFFFFFFFFFFFFFF DUP2 GT ISZERO PUSH2 0x3F3 JUMPI PUSH2 0x3F2 PUSH2 0x748 JUMP JUMPDEST JUMPDEST PUSH1 0x40 MLOAD SWAP1 DUP1 DUP3 MSTORE DUP1 PUSH1 0x20 MUL PUSH1 0x20 ADD DUP3 ADD PUSH1 0x40 MSTORE DUP1 ISZERO PUSH2 0x421 JUMPI DUP2 PUSH1 0x20 ADD PUSH1 0x20 DUP3 MUL DUP1 CALLDATASIZE DUP4 CALLDATACOPY DUP1 DUP3 ADD SWAP2 POP POP SWAP1 POP JUMPDEST POP PUSH1 0x1 SWAP1 DUP1 MLOAD SWAP1 PUSH1 0x20 ADD SWAP1 PUSH2 0x437 SWAP3 SWAP2 SWAP1 PUSH2 0x4E8 JUMP JUMPDEST POP POP POP JUMP JUMPDEST PUSH1 0x0 DUP1 BASEFEE TIMESTAMP COINBASE PUSH1 0x1 DUP1 SLOAD SWAP1 POP PUSH1 0x40 MLOAD PUSH1 0x20 ADD PUSH2 0x45B SWAP5 SWAP4 SWAP3 SWAP2 SWAP1 PUSH2 0x7E0 JUMP JUMPDEST PUSH1 0x40 MLOAD PUSH1 0x20 DUP2 DUP4 SUB SUB DUP2 MSTORE SWAP1 PUSH1 0x40 MSTORE SWAP1 POP PUSH1 0x0 DUP2 DUP1 MLOAD SWAP1 PUSH1 0x20 ADD KECCAK256 SWAP1 POP DUP1 PUSH1 0x0 SHR SWAP3 POP POP POP SWAP1 JUMP JUMPDEST PUSH1 0x2 PUSH1 0x0 SWAP1 SLOAD SWAP1 PUSH2 0x100 EXP SWAP1 DIV PUSH20 0xFFFFFFFFFFFFFFFFFFFFFFFFFFFFFFFFFFFFFFFF AND DUP2 JUMP JUMPDEST PUSH1 0x1 DUP2 DUP2 SLOAD DUP2 LT PUSH2 0x4B9 JUMPI PUSH1 0x0 DUP1 REVERT JUMPDEST SWAP1 PUSH1 0x0 MSTORE PUSH1 0x20 PUSH1 0x0 KECCAK256 ADD PUSH1 0x0 SWAP2 POP SLOAD SWAP1 PUSH2 0x100 EXP SWAP1 DIV PUSH20 0xFFFFFFFFFFFFFFFFFFFFFFFFFFFFFFFFFFFFFFFF AND DUP2 JUMP JUMPDEST DUP3 DUP1 SLOAD DUP3 DUP3 SSTORE SWAP1 PUSH1 0x0 MSTORE PUSH1 0x20 PUSH1 0x0 KECCAK256 SWAP1 DUP2 ADD SWAP3 DUP3 ISZERO PUSH2 0x561 JUMPI SWAP2 PUSH1 0x20 MUL DUP3 ADD JUMPDEST DUP3 DUP2 GT ISZERO PUSH2 0x560 JUMPI DUP3 MLOAD DUP3 PUSH1 0x0 PUSH2 0x100 EXP DUP2 SLOAD DUP2 PUSH20 0xFFFFFFFFFFFFFFFFFFFFFFFFFFFFFFFFFFFFFFFF MUL NOT AND SWAP1 DUP4 PUSH20 0xFFFFFFFFFFFFFFFFFFFFFFFFFFFFFFFFFFFFFFFF AND MUL OR SWAP1 SSTORE POP SWAP2 PUSH1 0x20 ADD SWAP2 SWAP1 PUSH1 0x1 ADD SWAP1 PUSH2 0x508 JUMP JUMPDEST JUMPDEST POP SWAP1 POP PUSH2 0x56E SWAP2 SWAP1 PUSH2 0x572 JUMP JUMPDEST POP SWAP1 JUMP JUMPDEST JUMPDEST DUP1 DUP3 GT ISZERO PUSH2 0x58B JUMPI PUSH1 0x0 DUP2 PUSH1 0x0 SWAP1 SSTORE POP PUSH1 0x1 ADD PUSH2 0x573 JUMP JUMPDEST POP SWAP1 JUMP JUMPDEST PUSH1 0x0 DUP2 SWAP1 POP SWAP2 SWAP1 POP JUMP JUMPDEST PUSH2 0x5A2 DUP2 PUSH2 0x58F JUMP JUMPDEST DUP3 MSTORE POP POP JUMP JUMPDEST PUSH1 0x0 PUSH1 0x20 DUP3 ADD SWAP1 POP PUSH2 0x5BD PUSH1 0x0 DUP4 ADD DUP5 PUSH2 0x599 JUMP JUMPDEST SWAP3 SWAP2 POP POP JUMP JUMPDEST PUSH1 0x0 PUSH20 0xFFFFFFFFFFFFFFFFFFFFFFFFFFFFFFFFFFFFFFFF DUP3 AND SWAP1 POP SWAP2 SWAP1 POP JUMP JUMPDEST PUSH1 0x0 PUSH2 0x5EE DUP3 PUSH2 0x5C3 JUMP JUMPDEST SWAP1 POP SWAP2 SWAP1 POP JUMP JUMPDEST PUSH2 0x5FE DUP2 PUSH2 0x5E3 JUMP JUMPDEST DUP3 MSTORE POP POP JUMP JUMPDEST PUSH1 0x0 PUSH1 0x20 DUP3 ADD SWAP1 POP PUSH2 0x619 PUSH1 0x0 DUP4 ADD DUP5 PUSH2 0x5F5 JUMP JUMPDEST SWAP3 SWAP2 POP POP JUMP JUMPDEST PUSH1 0x0 PUSH2 0x62A DUP3 PUSH2 0x5C3 JUMP JUMPDEST SWAP1 POP SWAP2 SWAP1 POP JUMP JUMPDEST PUSH2 0x63A DUP2 PUSH2 0x61F JUMP JUMPDEST DUP3 MSTORE POP POP JUMP JUMPDEST PUSH1 0x0 PUSH1 0x20 DUP3 ADD SWAP1 POP PUSH2 0x655 PUSH1 0x0 DUP4 ADD DUP5 PUSH2 0x631 JUMP JUMPDEST SWAP3 SWAP2 POP POP JUMP JUMPDEST PUSH1 0x0 DUP1 REVERT JUMPDEST PUSH2 0x669 DUP2 PUSH2 0x58F JUMP JUMPDEST DUP2 EQ PUSH2 0x674 JUMPI PUSH1 0x0 DUP1 REVERT JUMPDEST POP JUMP JUMPDEST PUSH1 0x0 DUP2 CALLDATALOAD SWAP1 POP PUSH2 0x686 DUP2 PUSH2 0x660 JUMP JUMPDEST SWAP3 SWAP2 POP POP JUMP JUMPDEST PUSH1 0x0 PUSH1 0x20 DUP3 DUP5 SUB SLT ISZERO PUSH2 0x6A2 JUMPI PUSH2 0x6A1 PUSH2 0x65B JUMP JUMPDEST JUMPDEST PUSH1 0x0 PUSH2 0x6B0 DUP5 DUP3 DUP6 ADD PUSH2 0x677 JUMP JUMPDEST SWAP2 POP POP SWAP3 SWAP2 POP POP JUMP JUMPDEST PUSH32 0x4E487B7100000000000000000000000000000000000000000000000000000000 PUSH1 0x0 MSTORE PUSH1 0x12 PUSH1 0x4 MSTORE PUSH1 0x24 PUSH1 0x0 REVERT JUMPDEST PUSH1 0x0 PUSH2 0x6F3 DUP3 PUSH2 0x58F JUMP JUMPDEST SWAP2 POP PUSH2 0x6FE DUP4 PUSH2 0x58F JUMP JUMPDEST SWAP3 POP DUP3 PUSH2 0x70E JUMPI PUSH2 0x70D PUSH2 0x6B9 JUMP JUMPDEST JUMPDEST DUP3 DUP3 MOD SWAP1 POP SWAP3 SWAP2 POP POP JUMP JUMPDEST PUSH32 0x4E487B7100000000000000000000000000000000000000000000000000000000 PUSH1 0x0 MSTORE PUSH1 0x32 PUSH1 0x4 MSTORE PUSH1 0x24 PUSH1 0x0 REVERT JUMPDEST PUSH32 0x4E487B7100000000000000000000000000000000000000000000000000000000 PUSH1 0x0 MSTORE PUSH1 0x41 PUSH1 0x4 MSTORE PUSH1 0x24 PUSH1 0x0 REVERT JUMPDEST PUSH1 0x0 DUP2 SWAP1 POP SWAP2 SWAP1 POP JUMP JUMPDEST PUSH2 0x792 PUSH2 0x78D DUP3 PUSH2 0x58F JUMP JUMPDEST PUSH2 0x777 JUMP JUMPDEST DUP3 MSTORE POP POP JUMP JUMPDEST PUSH1 0x0 DUP2 PUSH1 0x60 SHL SWAP1 POP SWAP2 SWAP1 POP JUMP JUMPDEST PUSH1 0x0 PUSH2 0x7B0 DUP3 PUSH2 0x798 JUMP JUMPDEST SWAP1 POP SWAP2 SWAP1 POP JUMP JUMPDEST PUSH1 0x0 PUSH2 0x7C2 DUP3 PUSH2 0x7A5 JUMP JUMPDEST SWAP1 POP SWAP2 SWAP1 POP JUMP JUMPDEST PUSH2 0x7DA PUSH2 0x7D5 DUP3 PUSH2 0x61F JUMP JUMPDEST PUSH2 0x7B7 JUMP JUMPDEST DUP3 MSTORE POP POP JUMP JUMPDEST PUSH1 0x0 PUSH2 0x7EC DUP3 DUP8 PUSH2 0x781 JUMP JUMPDEST PUSH1 0x20 DUP3 ADD SWAP2 POP PUSH2 0x7FC DUP3 DUP7 PUSH2 0x781 JUMP JUMPDEST PUSH1 0x20 DUP3 ADD SWAP2 POP PUSH2 0x80C DUP3 DUP6 PUSH2 0x7C9 JUMP JUMPDEST PUSH1 0x14 DUP3 ADD SWAP2 POP PUSH2 0x81C DUP3 DUP5 PUSH2 0x781 JUMP JUMPDEST PUSH1 0x20 DUP3 ADD SWAP2 POP DUP2 SWAP1 POP SWAP6 SWAP5 POP POP POP POP POP JUMP INVALID LOG2 PUSH5 0x6970667358 0x22 SLT KECCAK256 XOR ADDRESS MSTORE8 SELFDESTRUCT STOP 0x4A DELEGATECALL PUSH32 0xD2275A45EF674457BF764755B48C76B04DA630F55E58ED964736F6C63430008 SLT STOP CALLER "
				},
				"gasEstimates": {
					"creation": {
						"codeDepositCost": "429600",
						"executionCost": "24734",
						"totalCost": "454334"
					},
					"external": {
						"getBalance()": "2487",
						"manager()": "2511",
						"pickWinner()": "infinite",
						"players(uint256)": "5044",
						"randomNumber()": "infinite",
						"winner()": "2580"
					}
				},
				"methodIdentifiers": {
					"getBalance()": "12065fe0",
					"manager()": "481c6a75",
					"pickWinner()": "5d495aea",
					"players(uint256)": "f71d96cb",
					"randomNumber()": "ccbac9f5",
					"winner()": "dfbf53ae"
				}
			},
			"storageLayout": {
				"storage": [
					{
						"astId": 3,
						"contract": "MyContract.sol:LotteryContract",
						"label": "manager",
						"offset": 0,
						"slot": "0",
						"type": "t_address"
					},
					{
						"astId": 6,
						"contract": "MyContract.sol:LotteryContract",
						"label": "players",
						"offset": 0,
						"slot": "1",
						"type": "t_array(t_address_payable)dyn_storage"
					},
					{
						"astId": 8,
						"contract": "MyContract.sol:LotteryContract",
						"label": "winner",
						"offset": 0,
						"slot": "2",
						"type": "t_address_payable"
					}
				],
				"types": {
					"t_address": {
						"encoding": "inplace",
						"label": "address",
						"numberOfBytes": "20"
					},
					"t_address_payable": {
						"encoding": "inplace",
						"label": "address payable",
						"numberOfBytes": "20"
					},
					"t_array(t_address_payable)dyn_storage": {
						"base": "t_address_payable",
						"encoding": "dynamic_array",
						"label": "address payable[]",
						"numberOfBytes": "32"
					}
				}
			},
			"userdoc": {
				"kind": "user",
				"methods": {},
				"version": 1
			}
		}
	}
}